:1000000012C100000C94CC080C94A1080C94760842
:100010000C944B080C942008E8C70000BBC70000F4
:100020008EC7000031C100002FC100002DC10000AB
:100030002BC1000029C1000027C1000025C100001C
:1000400023C1000021C100001FC100001DC100002C
:100050000C94F70819C1000017C1000026C7000062
:1000600013C10000ECC60000C1C600000DC10000B5
:100070000BC1000009C1000007C1000005C100005C
:1000800003C1000001C10000FFC00000FDC000006E
:10009000FBC00000F9C00000F7C00000F5C0000080
:1000A000F3C00000F1C00000EFC00000EDC0000090
:1000B000EBC00000E9C00000E7C00000E5C00000A0
:1000C000E3C00000E1C00000DFC00000DDC00000B0
:1000D000DBC00000D9C00000D7C00000D5C00000C0
:1000E000D3C0000005A84CCDB2D44EB93836A90211
:1000F0000C50B9918688083CA6AAAA2ABE00000026
:10010000803F00002100240027002A002D0030003D
:10011000330001010000040107010A010000220070
:10012000250028002B002E003100340002010000C1
:10013000050108010B010000200023002600290012
:100140002C002F003200000100000301060109010C
:1001500005050505070508080808020202020A0A43
:100160000808040404040101010101010101030361
:10017000030303030303040707070C0C0C0C0C0C0C
:100180000C0C0202020206060606060606060B0B09
:100190000B0B0B0B0B0B010210202008081020404A
:1001A000102040800201020108040201010204083B
:1001B00010204080804020100804020180040201C9
:1001C0008040201008040201080402010102040812
:1001D00010204080010204081020408000000A0B1B
:1001E00002090C0D0E0807030401000000000000C6
:1001F00000000000000000000000000000000000FF
:1002000000000000000000001211100000000000BB
:1002100000000000000000000000000000000000DE
:10022000000056091A1011241FBECFEFD1E2DEBF25
:10023000CDBF00E00CBF24E0A4E8B3E001C01D92F4
:10024000AF39B207E1F713E0A0E0B2E0ECE7FAE281
:1002500000E00BBF02C007900D92A438B107D9F798
:1002600011E0C2E1D1E000E006C021970109802F32
:10027000FE010E940013C131D10780E00807A9F7F1
:100280000E949E090C942D15BBCE6091B90370910C
:10029000BA038091860390918703681B790B072E20
:1002A000000C880B990B0E942F1024E339EA49E7D0
:1002B00059E30E948E1020E030E040E251E40E94B9
:1002C0008E106093C7037093C8038093C903909303
:1002D000CA038091B9039091BA03909387038093E6
:1002E00086036091B5037091B60380918403909169
:1002F0008503681B790B072E000C880B990B0E9455
:100300002F1024E339EA49E759E30E948E1020E0D8
:1003100030E040E251E40E948E106093BD03709380
:10032000BE038093BF039093C0038091B503909167
:10033000B60390938503809384030895AF92BF9290
:10034000CF92DF92EF92FF920F931F93CF93DF93A1
:100350006C017B018B01040F151FEB015E01AE18D0
:10036000BF08C017D10759F06991D601ED91FC91F2
:100370000190F081E02DC6011995892B79F7C5010F
:10038000DF91CF911F910F91FF90EF90DF90CF9071
:10039000BF90AF900895FC01538D448D252F30E020
:1003A000842F90E0821B930B541710F0CF96089582
:1003B00001970895FC01918D828D981761F0A28DAF
:1003C000AE0FBF2FB11D5D968C91928D9F5F9F7375
:1003D000928F90E008958FEF9FEF0895FC01918D2B
:1003E000828D981731F0828DE80FF11D858D90E098
:1003F00008958FEF9FEF0895FC01918D228D892F35
:1004000090E0805C9F4F821B91098F73992708951C
:1004100080EE93E0F1DF21E0892B09F420E0822FC8
:100420000895FC01A48DA80FB92FB11DA35ABF4F89
:100430002C91848D90E001968F739927848FA689E3
:10044000B7892C93A089B1898C91837080648C9337
:10045000938D848D981306C00288F389E02D8081E6
:100460008F7D80830895EF92FF920F931F93CF9318
:10047000DF93EC0181E0888F9B8D8C8D98131AC0DF
:10048000E889F989808185FF15C09FB7F894EE89C6
:10049000FF896083E889F989808183708064808323
:1004A0009FBF81E090E0DF91CF911F910F91FF906E
:1004B000EF900895F62E0B8D10E00F5F1F4F0F7316
:1004C0001127E02E8C8D8E110BC00FB607FCFACFD2
:1004D000E889F989808185FFF5CFCE01A2DFF2CFCF
:1004E000EB8DEC0FFD2FF11DE35AFF4FF0829FB70C
:1004F000F8940B8FEA89FB8980818062D0CFCF93FB
:10050000DF93EC01888D8823B1F0AA89BB89E88943
:10051000F9898C9185FD03C0808186FD0CC00FB6E2
:1005200007FCF7CF8C9185FFF2CF808185FFEDCF5F
:10053000CE0177DFEACFDF91CF91089580E090E0A0
:10054000892B21F065DF81110E94000080E090E09E
:10055000892B49F080E090E0892B29F00E9400006F
:1005600081110E94000080E090E0892B49F080E03A
:1005700090E0892B29F00E94000081110E94000068
:1005800080E090E0892B49F080E090E0892B29F011
:100590000E94000081110C94000008958150823166
:1005A00008F05AC0E82FF0E08827E652FD4F8F4F41
:1005B0000C940013FA02FE02EC02F202F6022C0383
:1005C000010307030B031103150319031F0323037F
:1005D0002C0327032D033103809180008F778093B4
:1005E00080000895809180008F7DF9CF80918000F8
:1005F000877FF5CF84B58F7784BD089584B58F7DCF
:10060000FBCF8091B0008F778093B00008958091E8
:10061000B0008F7DF9CF809190008F77809390000C
:100620000895809190008F7DF9CF80919000877F11
:10063000F5CF8091A0008F778093A00008958091DE
:10064000A0008F7DF9CF8091A000877FF5CF8091AA
:1006500020018F77809320010895809120018F7D64
:10066000F9CF80912001877FF5CFCF93DF93282F9B
:1006700030E0F901E452FE4F8491F901EA56FE4F51
:10068000D491F901E05BFE4FC491CC2399F0811124
:1006900085DFEC2FF0E0EE0FFF1FEA5CFE4FA59127
:1006A000B491EC91ED2381E090E009F480E0DF91DA
:1006B000CF91089580E090E0FACF1F93CF93DF931E
:1006C000282F30E0F901E452FE4F8491F901EA56F7
:1006D000FE4FD491F901E05BFE4FC491CC23A1F011
:1006E000162F81115BDFEC2FF0E0EE0FFF1FE45EB1
:1006F000FE4FA591B4918FB7F894EC91111108C0F9
:10070000D095DE23DC938FBFDF91CF911F910895A9
:10071000DE2BF8CFCF93DF9390E0FC01EA56FE4F3B
:100720002491805B9E4FFC0184918823C9F090E066
:10073000880F991FFC01EE5FFE4FA591B491FC015B
:10074000E45EFE4FC591D49161110DC09FB7F8943E
:100750008C91209582238C938881282328839FBFA6
:10076000DF91CF910895623051F49FB7F8943C9196
:10077000822F809583238C93E8812E2BEFCF8FB728
:10078000F894EC912E2B2C938FBFEACF1F93CF932D
:10079000DF93182FEB0161E0BDDF209731F460E0BB
:1007A000812FDF91CF911F9188CFCF3FD10511F4D9
:1007B00061E0F6CFE12FF0E0E452FE4FE491E1502A
:1007C000E23108F0B3C0F0E08827E651FC4F8F4FCC
:1007D0000C940013FC030404090413041D04960480
:1007E00027042F04370441044B04550464046E04A9
:1007F0009604780482048C0484B5806884BDC7BDE7
:10080000DF91CF911F91089584B5806284BDC8BDEA
:10081000F7CF80918000806880938000D09389001A
:10082000C0938800EDCF809180008062809380002B
:10083000D0938B00C0938A00E3CF809180008860C2
:1008400080938000D0938D00C0938C00D9CF80918D
:10085000B00080688093B000C093B300D1CF809186
:10086000B00080628093B000C093B400C9CF809183
:100870009000806880939000D0939900C093980076
:10088000BFCF80919000806280939000D0939B00B6
:10089000C0939A00B5CF80919000886080939000BB
:1008A000D0939D00C0939C00ABCF8091A000806846
:1008B0008093A0008091A0008F7B8093A000D093B4
:1008C000A900C093A8009CCF8091A0008062809373
:1008D000A000D093AB00C093AA0092CF8091A0005B
:1008E00088608093A000D093AD00C093AC0088CF07
:1008F00080912001806880932001D0932901C093CA
:1009000028017ECF80912001806280932001D093C6
:100910002B01C0932A0174CF8091200188608093BD
:100920002001D0932D01C0932C016ACFC038D1058E
:100930000CF03ECF34CFCF93C0E097FF04C0919529
:1009400081959109C1E09C01213981E0380714F0BB
:1009500020E931E043E3429FC001439F900D112401
:1009600060E570E00E94CB12809192040FDF8091CD
:10097000DF0361E08C1301C060E080919604CF91A9
:100980009CCECF93C0E097FF04C0919581959109CB
:10099000C1E09C01213981E0380714F020E931E001
:1009A00043E3429FC001439F900D112460E570E036
:1009B0000E94CB1280919104E9DE61E0C11101C077
:1009C00060E080919504CF9178CE863308F086530D
:1009D00020917B00982F9870277F922B90937B001B
:1009E0008770806480937C0080917A00806480931B
:1009F0007A0080917A0086FDFCCF809178009091FA
:100A0000790008953FB7F89480918D0390918E03FB
:100A1000A0918F03B091900326B5A89B05C02F3FEE
:100A200019F00196A11DB11D3FBFBA2FA92F982F14
:100A30008827BC01CD01620F711D811D911D42E00F
:100A4000660F771F881F991F4A95D1F708958F92D7
:100A50009F92AF92BF92CF92DF92EF92FF924B01A3
:100A60005C01D0DF6B017C01CDDF6C197D098E0943
:100A70009F09683E734081059105B0F321E0821A19
:100A80009108A108B10888EEC80E83E0D81EE11CC9
:100A9000F11C81149104A104B10431F7FF90EF908F
:100AA000DF90CF90BF90AF909F908F9008952FB719
:100AB000F8946091890370918A0380918B039091DF
:100AC0008C032FBF08950895089510929E031092ED
:100AD00099030895CF93DF9384E1C7DDEC0185E1AD
:100AE000C4DDC817D90761F08091B5039091B603B2
:100AF00001969093B6038093B503DF91CF9108954B
:100B00008091B5039091B6030197F3CFCF93DF9314
:100B100082E1ABDDEC0183E1A8DDC817D90761F004
:100B20008091B9039091BA0301979093BA0380938F
:100B3000B903DF91CF9108958091B9039091BA03E1
:100B40000196F3CFFC0101900020E9F73197AF0146
:100B5000481B590BBC0180EE93E0F0CB8F929F9223
:100B6000AF92BF920F931F93CF93DF93CDB7DEB7B2
:100B7000A1970FB6F894DEBF0FBECDBF19A24230C9
:100B800008F44AE08E010F5D1F4F842E912CB12C8A
:100B9000A12CA50194010E94DE12E62FB901CA0121
:100BA000EA30ECF4E05DD801EE938D01232B242B89
:100BB000252B79F790E080E0109711F0CD01C2DF8E
:100BC000A1960FB6F894DEBF0FBECDBFDF91CF91D7
:100BD0001F910F91BF90AF909F908F900895E95C07
:100BE000E2CFCF92DF92EF92FF92CF93DF936C012F
:100BF000990FEE08FF08F7FE17C06DE280EE93E054
:100C000032DCEC0166277727CB016C197D098E0950
:100C10009F094AE0A3DF8C0F9D1FDF91CF91FF90CA
:100C2000EF90DF90CF9008954AE0C701B601DF91C1
:100C3000CF91FF90EF90DF90CF9090CF83CF4F92E6
:100C40005F926F927F928F929F92AF92BF92CF925C
:100C5000DF92EF92FF920F931F93CF936B017C0172
:100C6000742EAC019B010E944A12882391F084E308
:100C700092E0CF911F910F91FF90EF90DF90CF9076
:100C8000BF90AF909F908F907F906F905F904F90AC
:100C900059CF46015701E894B7F82FEF3FEF4FE7E0
:100CA0005FE7C501B4010E944A1281110DC02FEF08
:100CB0003FEF4FE75FE7C501B4010E942910181606
:100CC0001CF488E392E0D5CF2FEF3FEF4FE75FE4CE
:100CD000C701B6010E94401218161CF48CE392E082
:100CE000C8CF2FEF3FEF4FE75FECC701B6010E947F
:100CF000291087FDF3CF20E030E0A901C701B6013C
:100D00000E94291010E000E087FF09C06DE280EE2C
:100D100093E0A9DB8C01F7FAF094F7F8F094C0E0C7
:100D200060E070E080E09FE37C1641F020E030E07E
:100D300040E251E40E94A711CF5FF6CFA7019601D0
:100D40000E9443112B013C010E9414124B015C01D3
:100D50004AE004DF7C01E00EF11ECC23B1F1C501B5
:100D6000B4010E942D109B01AC01C301B2010E948D
:100D700042114B015C016EE280EE93E074DBE80E01
:100D8000F91EC15010F120E030E040E251E4C5010D
:100D9000B4010E948E102B013C010E9414124B01E1
:100DA000B12CA12C4AE0C501B401D8DEE80EF91E31
:100DB000C501B4010E942D109B01AC01C301B20119
:100DC0000E9442114B015C01DCCFC701CF911F9102
:100DD0000F91FF90EF90DF90CF90BF90AF909F90DA
:100DE0008F907F906F905F904F9008951F920F9219
:100DF0000FB60F9211240BB60F922F933F934F9380
:100E00005F936F937F938F939F93AF93BF93EF9372
:100E1000FF9380EE93E005DBFF91EF91BF91AF91DF
:100E20009F918F917F916F915F914F913F912F9102
:100E30000F900BBE0F900FBE0F901F9018951F9232
:100E40000F920FB60F9211240BB60F922F938F9320
:100E50009F93EF93FF93E091F003F091F103808172
:100E6000E091F603F091F70382FD1DC0908180911F
:100E7000F9038F5F8F732091FA03821741F0E0919D
:100E8000F903F0E0E052FC4F958F8093F903FF9156
:100E9000EF919F918F912F910F900BBE0F900FBEEE
:100EA0000F901F9018958081F2CF1F920F920FB66E
:100EB0000F9211242F933F938F939F93AF93BF93E0
:100EC0008091890390918A03A0918B03B0918C0348
:100ED0003091880323E0230F2D3758F50196A11D8B
:100EE000B11D209388038093890390938A03A09374
:100EF0008B03B0938C0380918D0390918E03A0910E
:100F00008F03B09190030196A11DB11D80938D03B5
:100F100090938E03A0938F03B0939003BF91AF91F2
:100F20009F918F913F912F910F900FBE0F901F9027
:100F3000189526E8230F0296A11DB11DD2CF1F924E
:100F40000F920FB60F9211240BB60F922F933F936F
:100F50004F935F936F937F938F939F93AF93BF93C1
:100F6000EF93FF93E0910E02F0910F021995FF911C
:100F7000EF91BF91AF919F918F917F916F915F9111
:100F80004F913F912F910F900BBE0F900FBE0F907E
:100F90001F9018951F920F920FB60F9211240BB647
:100FA0000F922F933F934F935F936F937F938F9302
:100FB0009F93AF93BF93EF93FF93E0910C02F09157
:100FC0000D021995FF91EF91BF91AF919F918F9174
:100FD0007F916F915F914F913F912F910F900BBE39
:100FE0000F900FBE0F901F9018951F920F920FB683
:100FF0000F9211240BB60F922F933F934F935F9351
:101000006F937F938F939F93AF93BF93EF93FF93D0
:10101000E0910202F09103021995FF91EF91BF91C7
:10102000AF919F918F917F916F915F914F913F9180
:101030002F910F900BBE0F900FBE0F901F90189521
:101040001F920F920FB60F9211240BB60F922F938F
:101050003F934F935F936F937F938F939F93AF9340
:10106000BF93EF93FF93E0910002F0910102199575
:10107000FF91EF91BF91AF919F918F917F916F9170
:101080005F914F913F912F910F900BBE0F900FBE2C
:101090000F901F9018951F920F920FB60F92112468
:1010A0000BB60F922F933F934F935F936F937F9362
:1010B0008F939F93AF93BF93EF93FF93E0910A02B7
:1010C000F0910B021995FF91EF91BF91AF919F9114
:1010D0008F917F916F915F914F913F912F910F90E1
:1010E0000BBE0F900FBE0F901F9018951F920F927E
:1010F0000FB60F9211240BB60F922F933F934F937D
:101100005F936F937F938F939F93AF93BF93EF936F
:10111000FF93E0910802F09109021995FF91EF9178
:10112000BF91AF919F918F917F916F915F914F91FF
:101130003F912F910F900BBE0F900FBE0F901F90FD
:1011400018951F920F920FB60F9211240BB60F92A3
:101150002F933F934F935F936F937F938F939F93BF
:10116000AF93BF93EF93FF93E0910602F0910702D4
:101170001995FF91EF91BF91AF919F918F917F91C1
:101180006F915F914F913F912F910F900BBE0F90F8
:101190000FBE0F901F9018951F920F920FB60F92CF
:1011A00011240BB60F922F933F934F935F936F933E
:1011B0007F938F939F93AF93BF93EF93FF93E091B0
:1011C0000402F09105021995FF91EF91BF91AF9143
:1011D0009F918F917F916F915F914F913F912F914F
:1011E0000F900BBE0F900FBE0F901F9018951F927F
:1011F0000F920FB60F9211240BB60F922F933F93BD
:101200004F935F936F937F938F939F93AF93BF930E
:10121000EF93FF93E0911002F09111021995FF9165
:10122000EF91BF91AF919F918F917F916F915F915E
:101230004F913F912F910F900BBE0F900FBE0F90CB
:101240001F901895CF93DF93EC01198218821B82AF
:101250001A821D821C8261E070E090E080E00E94B2
:1012600041140097A1F0998388831B821A822C81F4
:101270003D81232B11F4FC0110821D821C8267E941
:1012800072E088819981DF91CF910C942615888135
:101290009981009711F00E94B813198218821D825B
:1012A0001C821B821A82DF91CF910895E0EEF3E059
:1012B0001382128288EE93E0A0E0B0E084839583ED
:1012C000A683B78386E292E09183808385EC90E0E9
:1012D0009587848784EC90E09787868780EC90E000
:1012E000918B808B81EC90E0938B828B82EC90E0F1
:1012F000958B848B86EC90E0978B868B118E128E6B
:10130000138E148EEDE8F4E082E0868386E0828717
:1013100087E0808789E0848386E3848784E087830D
:101320008CE0838788E081878AE0858387E38587EF
:1013300087E894E087DF81E894E084CF789484B5EF
:10134000826084BD84B5816084BD85B5826085BDC1
:1013500085B5816085BD80916E00816080936E004F
:101360001092810080918100826080938100809141
:1013700081008160809381008091800081608093F2
:1013800080008091B10084608093B1008091B000B2
:1013900081608093B0008091910082608093910081
:1013A0008091910081608093910080919000816094
:1013B000809390008091A10082608093A100809131
:1013C000A10081608093A1008091A0008160809342
:1013D000A0008091210182608093210180912101F0
:1013E00081608093210180912001816080932001A0
:1013F00080917A00846080937A0080917A00826084
:1014000080937A0080917A00816080937A00809145
:101410007A00806880937A001092C10062E086E1D1
:1014200079D962E087E176D962E088E173D962E038
:1014300089E170D961E08AE16DD961E08BE16AD917
:1014400061E08CE167D961E08DE164D9E091F0035E
:10145000F091F10382E08083E091EC03F091ED03E1
:101460001082E091EE03F091EF03C0E1C08310928F
:10147000F803E091F403F091F50386E08083E091B6
:10148000F203F091F303808180618083E091F203A5
:10149000F091F303808188608083E091F203F09102
:1014A000F303808180688083E091F203F091F3037D
:1014B00080818F7D808380E492E0C0DB85E892E0CC
:1014C00041DB85E992E03EDBC09381001092800011
:1014D00084ED90E3909387008093860083E180936E
:1014E000810085E491E09093110280931002C1E0A5
:1014F000C0936F0062E082E10DD962E083E10AD916
:1015000062E084E107D962E085E104D988E992E0EC
:1015100019DB85E992E016DB61E080919304FAD84B
:1015200061E080919404F6D861E080919104F2D852
:1015300062E080919704EED860E080919904EAD847
:1015400061E080919504E6D861E080919604E2D84C
:1015500061E080919204DED862E080919804DAD84C
:1015600060E080919A04D6D890E080E00ADA90E0BA
:1015700080E0E1D961E0809193049FD861E080919F
:1015800094049BD861E070E080E090E060DA8091A4
:1015900099041BDA90938E0480938D0480919A04B1
:1015A00014DA9093900480938F0468EE73E080E0E7
:1015B00090E04DDAC093DF037ADA60939103709381
:1015C0009203809393039093940322242394312CC9
:1015D0006EDA6093DB037093DC038093DD039093FA
:1015E000DE03C0911602D09117022097C1F05FDA96
:1015F0006B017C01C092DB03D092DC03E092DD033F
:10160000F092DE03C330D10509F471C10CF09CC027
:10161000C130D10509F4B6C0229709F421C18091E7
:10162000DB039091DC03A091DD03B091DE034091D8
:10163000D7035091D8036091D9037091DA03841BCA
:10164000950BA60BB70B84369105A105B10508F4DF
:1016500019C2B12CA12CCFEFDFEF10E000E061E068
:101660000115110509F460E08AE127D861E0013035
:10167000110509F460E08BE120D861E0023011052A
:1016800009F460E08CE119D861E00330110509F438
:1016900060E08DE112D8D801A156BC4F6D01F12C4C
:1016A000E12C86E18E0D0E94350321E0009709F0C0
:1016B00020E0892B39F4F6018081811103C0E70114
:1016C000CA0DDB1DD6012C93BFEFEB1AFB0AE4E039
:1016D000CE0ED11CF4E0EF16F10419F70F5F1F4F87
:1016E00024E0A20EB11C0430110509F0B8CF80919E
:1016F000160290911702009709F00EC46091B7038B
:101700007091B8034091B3035091B4032091D50375
:101710003091D603C031D10508F0A4C1FE0188275D
:10172000EC56F44F8F4F6CC72C0D560F590F600FAE
:10173000630F680F6F0F740F320D320D790F800F2A
:10174000320D320D320D830FC430D10509F443C17F
:10175000259709F064CF8091910390919203A09115
:101760009303B0919403A7019601281B390B4A0BF0
:101770005B0BDA01C901893B9848A105B10508F462
:101780004ECF3EC18091AF039091B003A091B103C1
:10179000B091B203C816D906EA06FB0618F081E03C
:1017A00080939E0380919E03882339F022E030E0ED
:1017B000309317022093160232CF80917D049091CE
:1017C0007E04A0917F04B0918004A7019601281B9C
:1017D000390B4A0B5B0BCA01B9013FD44B015C01C9
:1017E000609118027091190280911A0290911B0267
:1017F00034D49B01AC01C501B401A9D52BED3FE068
:1018000049EC5FE38BD440D64B015C01609114023C
:10181000709115028091CF039091D003681B790BD2
:10182000072E000C880B990B1AD42B013C01A50143
:101830009401C501B40172D49B01AC01C301B20192
:101840006DD4EDD57093D6036093D503C0929A03FF
:10185000D0929B03E0929C03F0929D0336D9DFCE99
:1018600080919A0390919B03A0919C03B0919D035A
:10187000A7019601281B390B4A0B5B0BDA01C90142
:1018800089399A43A105B10548F1C0927D04D092EF
:101890007E04E0927F04F092800484ED90E3A0E067
:1018A000B0E08093180290931902A0931A02B093AB
:1018B0001B0294EDC90E90E3D91EE11CF11CC092ED
:1018C000AF03D092B003E092B103F092B203A3E071
:1018D000B0E0B0931702A0931602C0CF809114021B
:1018E000909115029093D6038093D50398CE809162
:1018F000AF039091B003A091B103B091B203C816A9
:10190000D906EA06FB0618F081E0809399038091DE
:101910009903882339F0E4E0F0E0F0931702E093B4
:1019200016027DCE80917D0490917E04A0917F046B
:10193000B0918004A7019601281B390B4A0B5B0B61
:10194000CA01B9018AD34B015C0160911802709100
:10195000190280911A0290911B027FD39B01AC0166
:10196000C501B401F4D42BED3FE049EC5FE3D6D3DD
:101970008BD54B015C01609114027091150280912E
:10198000CF039091D003681B790B072E000C880BB6
:10199000990B65D32B013C01A5019401C501B4014C
:1019A000BDD39B01AC0160E070E080E89FE36AD4A6
:1019B0009B01AC01C301B201B1D331D57093D60301
:1019C0006093D503C0929503D0929603E09297035B
:1019D000F092980343CF8091950390919603A09144
:1019E0009703B0919803A7019601281B390B4A0B66
:1019F0005B0BDA01C9018D359444A105B10538F1BD
:101A0000C0927D04D0927E04E0927F04F092800424
:101A100088E99AE3A0E0B0E080931802909319025D
:101A2000A0931A02B0931B0298E9C90E9AE3D91E3B
:101A3000E11CF11CC092AF03D092B003E092B1035D
:101A4000F092B203309217022092160207CF8091D3
:101A5000CF039091D00346CF6B5071097093B803B8
:101A60006093B7038091DB039091DC03A091DD03C9
:101A7000B091DE038093D7039093D803A093D9034A
:101A8000B093DA03C091D503D091D6032091B90366
:101A90003091BA038091B7039091B803820F931FDE
:101AA0009093C6038093C5034091B5035091B6034C
:101AB0002091B3033091B403240F351F3093BC033E
:101AC0002093BB03C090CB03D090CC03E090CD0318
:101AD000F090CE03BE01681B790B072E000C880B1B
:101AE000990BBDD220E030E040E450E417D3A701C9
:101AF0009601C8D3A7019601C6D36B017C0120E0F3
:101B000030E04AEF53ECA5D287FD86C220E030E0FA
:101B10004AEF53E4C701B601B3D4181634F4C12C0C
:101B2000D12C3AEFE32E33E4F32EC092CB03D092C4
:101B3000CC03E092CD03F092CE0320E030E0A90187
:101B4000C701B6019DD4181624F0F7FAF094F7F8FF
:101B5000F09420E030E046E952E4C701B60179D2C2
:101B600087FF25C0C090C703D090C803E090C90389
:101B7000F090CA0320E030E0A901C701B60180D48B
:101B8000181624F0F7FAF094F7F8F0942AE037EDFD
:101B900043E25CE3C701B6015CD287FF08C0109244
:101BA000CB031092CC031092CD031092CE03609120
:101BB000CB037091CC038091CD039091CE032FD4B1
:101BC000CB010E94C104809197040E943503892BA8
:101BD000E1F460E0809193040E945D0360E08091F5
:101BE00094040E945D0361E070E080E090E00E9458
:101BF000270588EB92E022D80E9457054AE00E9410
:101C0000AE0585E992E00E94A205C090C103D09084
:101C1000C203E090C303F090C4038091BB03909192
:101C2000BC03BE01681B790B072E000C880B990BB7
:101C300016D220E030E040E450E470D2A7019601D3
:101C400021D3A70196011FD36B017C0120E030E076
:101C50004AEF53ECFED187FDE6C120E030E04AEFC9
:101C600053E4C701B6010CD4181634F4C12CD12C9E
:101C70009AEFE92E93E4F92EC092C103D092C203E9
:101C8000E092C303F092C40320E030E0A901C70151
:101C9000B601F6D3181624F0F7FAF094F7F8F0949A
:101CA00020E030E046E952E4C701B601D2D187FF17
:101CB00025C0C090BD03D090BE03E090BF03F0905C
:101CC000C00320E030E0A901C701B601D9D318163E
:101CD00024F0F7FAF094F7F8F0942AE037ED43E2B5
:101CE0005CE3C701B601B5D187FF08C01092C103FC
:101CF0001092C2031092C3031092C4036091C103F7
:101D00007091C2038091C3039091C40388D3CB0127
:101D10000E949B04809198040E943503892BE9F46A
:101D200060E0809193040E945D0360E080919404E0
:101D30000E945D0361E070E080E090E00E94270572
:101D400088EC92E00E941E060E9457054AE00E941D
:101D5000AE0585E992E00E94A2058091DB03909197
:101D6000DC03A091DD03B091DE034091D1035091DB
:101D7000D2036091D3037091D403841B950BA60BFF
:101D8000B70B883E9340A105B10508F48CC088EDDF
:101D900092E00E941E0680911602909117020E9406
:101DA000F10588EE92E00E941E068091D503909185
:101DB000D6030E94F1058AEF92E00E941E068091F0
:101DC0001402909115020E94F10588E093E00E94B0
:101DD0001E068091CF039091D0030E94F10587E108
:101DE00093E00E941E066091CB037091CC0380911A
:101DF000CD039091CE0342E00E941F0688E293E05B
:101E00000E941E066091C7037091C8038091C903A8
:101E10009091CA0342E00E941F0689E393E00E946A
:101E20001E068091C5039091C6030E94F1058DE4C2
:101E300093E00E941E066091C1037091C2038091DD
:101E4000C3039091C40342E00E941F068EE593E015
:101E50000E941E066091BD037091BE038091BF0376
:101E60009091C00342E00E941F068FE693E00E941B
:101E70001E068091BB039091BC030E94F10585E989
:101E800092E00E94A2058091DB039091DC03A09177
:101E9000DD03B091DE038093D1039093D203A0932E
:101EA000D303B093D4030E949E0292CB655F7F4F11
:101EB000D5CD4B5051095093B4034093B303D2CDC9
:101EC000455F5F4FF8CF3093150220931402CACDBF
:101ED00046EF59E05093150240931402C3CD30935E
:101EE000D0032093CF03BECD1092D0031092CF0326
:101EF000B9CD2E5631093093D6032093D503B2CDF8
:101F000022593F4FF8CF8091120290911302909383
:101F1000170280931602A6CDC130D10509F444C042
:101F2000A4F5CD2B09F09ECD0E9457056093DB03ED
:101F30007093DC038093DD039093DE0360937D0454
:101F400070937E0480937F049093800428E833E1AB
:101F500040E050E0209318023093190240931A0297
:101F600050931B0268577C4E8F4F9F4F6093AF0377
:101F70007093B0038093B1039093B2033092170231
:101F8000209216020E9465056DCDC230D105E9F19F
:101F9000239709F067CD9093130280931202109259
:101FA000170210921602EECF0E9457056093DB03D2
:101FB0007093DC038093DD039093DE0360937D04D4
:101FC00070937E0480937F049093800428E833E12B
:101FD00040E050E0209318023093190240931A0217
:101FE00050931B0268577C4E8F4F9F4F6093AF03F7
:101FF0007093B0038093B1039093B20343E050E039
:102000005093170240931602BDCF85E090E0909365
:10201000170280931602B6CFC12CD12C2AEFE22EE4
:1020200023ECF22E82CDC12CD12C8AEFE82E83EC4A
:10203000F82E22CE8091810490918204009709F0BD
:1020400097D38091870490918804009709F090C3FA
:10205000089540D008F481E00895E89409C097FB02
:102060003EF490958095709561957F4F8F4F9F4F6F
:102070009923A9F0F92F96E9BB279395F6958795B3
:1020800077956795B795F111F8CFFAF4BB0F11F476
:1020900060FF1BC06F5F7F4F8F4F9F4F16C088231D
:1020A00011F096E911C0772321F09EE8872F762F53
:1020B00005C0662371F096E8862F70E060E02AF094
:1020C0009A95660F771F881FDAF7880F9695879580
:1020D00097F90895990F0008550FAA0BE0E8FEEF55
:1020E00016161706E807F907C0F012161306E407DC
:1020F000F50798F0621B730B840B950B39F40A26D5
:1021000061F0232B242B252B21F408950A2609F4B2
:10211000A140A6958FEF811D811D08950BD078C039
:1021200069D028F06ED018F0952309F05AC05FC02E
:102130001124A2C07ED0A0F3959FD1F3950F50E05B
:10214000551F629FF001729FBB27F00DB11D639F69
:10215000AA27F00DB11DAA1F649F6627B00DA11D0F
:10216000661F829F2227B00DA11D621F739FB00DB5
:10217000A11D621F839FA00D611D221F749F332725
:10218000A00D611D231F849F600D211D822F762FBE
:102190006A2F11249F5750408AF0E1F088234AF0BB
:1021A000EE0FFF1FBB1F661F771F881F9150504007
:1021B000A9F79E3F510570F014C05EC05F3FECF37D
:1021C000983EDCF3869577956795B795F795E795F3
:1021D0009F5FC1F7FE2B880F911D9695879597F904
:1021E000089597F99F6780E870E060E008959FEF99
:1021F00080EC089500240A9416161706180609069E
:10220000089500240A94121613061406050608956C
:10221000092E0394000C11F4882352F0BB0F40F4F4
:10222000BF2B11F460FF04C06F5F7F4F8F4F9F4F34
:10223000089557FD9058440F551F59F05F3F71F0B6
:102240004795880F97FB991F61F09F3F79F087951D
:102250000895121613061406551FF2CF4695F1DFA6
:1022600008C0161617061806991FF1CF8695710536
:10227000610508940895E894BB2766277727CB016A
:1022800097F908955058BB27AA270ED0C1CFB2DFC7
:1022900030F0B7DF20F031F49F3F11F41EF4A7CFE8
:1022A0000EF4E095E7FB9DCFE92FC3DF80F3BA176B
:1022B000620773078407950718F071F49EF5DBCF6A
:1022C0000EF4E0950B2EBA2FA02D0B01B901900151
:1022D0000C01CA01A0011124FF27591B99F0593F95
:1022E00050F4503E68F11A16F040A22F232F342FDD
:1022F0004427585FF3CF469537952795A795F0402B
:102300005395C9F77EF41F16BA0B620B730B840B3F
:10231000BAF09150A1F0FF0FBB1F661F771F881FF7
:10232000C2F70EC0BA0F621F731F841F48F487954F
:1023300077956795B795F7959E3F08F0B3CF93953E
:10234000880F08F09927EE0F9795879508950CD080
:102350005FCF57DF40F04EDF30F021F45F3F19F0E0
:1023600040CF511189CF43CF64DF98F39923C9F34C
:102370005523B1F3951B550BBB27AA27621773078B
:10238000840738F09F5F5F4F220F331F441FAA1F3F
:10239000A9F333D00E2E3AF0E0E830D091505040FF
:1023A000E695001CCAF729D0FE2F27D0660F771FAD
:1023B000881FBB1F261737074807AB07B0E809F08F
:1023C000BB0B802DBF01FF2793585F4F2AF09E3F24
:1023D000510568F006CF50CF5F3FECF3983EDCF339
:1023E000869577956795B795F7959F5FC9F7880F9D
:1023F000911D9695879597F90895E1E0660F771FEF
:10240000881FBB1F621773078407BA0720F0621B7F
:10241000730B840BBA0BEE1F88F7E095089504D078
:102420006894B11129CF08950CDF88F09F5790F080
:10243000B92F9927B751A0F0D1F0660F771F881FE9
:10244000991F1AF0BA95C9F712C0B13081F013DFA5
:10245000B1E0089510CF672F782F8827B85F39F043
:10246000B93FCCF3869577956795B395D9F73EF448
:1024700090958095709561957F4F8F4F9F4F0895F0
:1024800029DE08F48FEF08959F9309D00F9007FC81
:10249000EE5F2CC01FDE880B990B0895A8CED1DE0D
:1024A000E8F3E894E0E0BB279F57F0F02AED3FE027
:1024B00049EC06C0EE0FBB0F661F771F881F28F080
:1024C000B23A62077307840728F0B25A620B730BA3
:1024D000840BE3959A9572F7803830F49A95BB0F88
:1024E000661F771F881FD2F7904813C0EF93E0FF55
:1024F00006C0A2EA2AED3FE049EC5FEBD5DE88DEBC
:102500000F90039401FC9058E4EEF0E00EC09F3F62
:1025100031F0915020F4879577956795B795880F9E
:10252000911D9695879597F908959F938F937F9323
:102530006F93FF93EF939B01AC01F0DDEF91FF915F
:1025400005D02F913F914F915F91E8CDDF93CF93CD
:102550001F930F93FF92EF92DF927B018C0168949F
:1025600005C0DA2EEF01E6DDFE01E894A591259184
:10257000359145915591AEF3EF0196DEFE0197013D
:10258000A801DA9479F7DF90EF90FF900F911F91F7
:10259000CF91DF91089597FB072E16F4009406D093
:1025A00077FD08D035D007FC05D03EF49095819595
:1025B0009F4F0895709561957F4F0895A1E21A2E5F
:1025C000AA1BBB1BFD010DC0AA1FBB1FEE1FFF1FD7
:1025D000A217B307E407F50720F0A21BB30BE40B27
:1025E000F50B661F771F881F991F1A9469F760956E
:1025F0007095809590959B01AC01BD01CF01089528
:10260000EE0FFF1F881F8BBF0790F691E02D1994E6
:10261000AA1BBB1B51E107C0AA1FBB1FA617B70708
:1026200010F0A61BB70B881F991F5A95A9F7809524
:102630009095BC01CD0108950F931F93CF93DF9325
:102640008230910510F482E090E0E0919D04F091D9
:102650009E0430E020E0B0E0A0E0309799F421152E
:10266000310509F44AC0281B390B24303105D8F54F
:102670008A819B816115710589F1FB0193838283B6
:10268000FE0111C040815181028113814817590711
:10269000E0F04817590799F4109761F012960C93DF
:1026A000129713961C933296CF01DF91CF911F9111
:1026B0000F91089500939D0410939E04F4CF21156B
:1026C000310551F04217530738F0A901DB019A0197
:1026D000BD01DF01F801C1CFEF01F9CF90939E0456
:1026E00080939D04CDCFFE01E20FF31F8193919360
:1026F0002250310939832883D7CF20919B04309110
:102700009C04232B41F420911E0230911F02309330
:102710009C0420939B0420911C0230911D022115E2
:10272000310541F42DB73EB740912002509121026E
:10273000241B350BE0919B04F0919C04E217F307F6
:10274000A0F42E1B3F0B2817390778F0AC014E5F21
:102750005F4F2417350748F04E0F5F1F50939C04BE
:1027600040939B04819391939FCFF0E0E0E09CCF56
:10277000CF93DF930097E9F0FC0132971382128226
:10278000A0919D04B0919E04ED0130E020E01097EF
:10279000A1F420813181820F931F20919B043091FD
:1027A0009C042817390709F061C0F0939C04E0935A
:1027B0009B04DF91CF910895EA01CE17DF07E8F57A
:1027C0004A815B819E0141155105B1F7E901FB8307
:1027D000EA8349915991C40FD51FEC17FD0761F4A5
:1027E000808191810296840F951FE90199838883E6
:1027F000828193819B838A83F0E0E0E012968D9141
:102800009C9113970097B9F52D913C911197CD01AB
:102810000296820F931F20919B0430919C042817ED
:10282000390739F6309751F510929E0410929D04A5
:10283000B0939C04A0939B04BCCFD383C2834081FC
:102840005181840F951FC817D90761F44E5F5F4F00
:1028500088819981480F591F518340838A819B81C8
:10286000938382832115310509F0B0CFF0939E0444
:10287000E0939D049ECFFD01DC01C0CF1382128244
:10288000D7CF4F925F926F927F928F929F92AF922B
:10289000BF92CF92DF92EF92FF920F931F93CF934D
:1028A000DF938C01009791F4CB01DF91CF911F91C1
:1028B0000F91FF90EF90DF90CF90BF90AF909F90DF
:1028C0008F907F906F905F904F90B6CEFC01E60F97
:1028D000F71F9C0122503109E217F30708F4AAC040
:1028E000D901CD91DC911197C617D70718F1C530E2
:1028F000D10570F0CE0104978617970748F0C61BE4
:10290000D70B2297C193D1936D937C93CF0130DF86
:10291000C801DF91CF911F910F91FF90EF90DF9051
:10292000CF90BF90AF909F908F907F906F905F906F
:102930004F9008955B01AC1ABD0A4C018C0E9D1E90
:10294000A0919D04B0919E04512C412CF12CE12CBE
:10295000109731F580919B0490919C0488159905FE
:1029600009F05CC04616570608F058C080911C025A
:1029700090911D02009741F48DB79EB740912002BF
:1029800050912102841B950BE817F90708F052C0FB
:10299000F0939C04E0939B04F90171836083B8CFAA
:1029A0008D919C91119712966C90129713967C9032
:1029B0001397A815B90559F56C0142E0C40ED11C56
:1029C000CA14DB0420F1AC014A195B09DA01129642
:1029D000159780F06282738251834083D9016D9391
:1029E0007C93E114F10471F0D7011396FC93EE93FC
:1029F00012978ECF22968C0F9D1FF90191838083B1
:102A0000F301EFCFF0939E04E0939D0481CF48162D
:102A1000590608F42C017D01D3019ACFCB010CDEBD
:102A20007C01009739F0AE01B80107D0C801A0DEE3
:102A300087016ECF10E000E06BCFFB01DC0102C02C
:102A400001900D9241505040D8F70895FB01DC01F0
:102A500001900D920020E1F7089511E0C2E1D1E06C
:102A600000E005C0802FFE01CBDD2196011DC331A2
:0C2A7000D10780E00807B1F7F894FFCF11
:102A7C00630563056305630563056305630563050A
:102A8C0064050300F60905000100000000009F0426
:102A9C0080000000000033029E01CB017F02FC018C
:102AAC00DA01EE016E616E00696E66006F7666008B
:102ABC000A4D656D6272616E65205363756C70743E
:102ACC007572650A427920546175626120417565A1
:102ADC0072626163680A436F646520627920506892
:102AEC00696C6C697020446176696420537465610B
:102AFC00726E730A00496E697469616C697A696EE9
:102B0C00672E2E2E000D0A004475616C2047322072
:102B1C004869676820506F776572204D6F746F72CB
:102B2C0020536869656C64004D31206661756C7466
:102B3C002E2054696D653A004D32206661756C74B7
:102B4C002E2054696D653A004D616368696E65208D
:102B5C0053746174653A20000943757272656E7422
:102B6C00205461726765743A20000954617267657C
:102B7C00744F70656E3A2000095461726765744336
:102B8C006C6F73653A2000094D6F746F72203120A1
:102B9C00506F7765723A2000094D6F746F72203157
:102BAC002053706565643A2000094D6F746F722074
:102BBC003120506F736974696F6E3A2000094D6F44
:102BCC00746F72203220506F7765723A2000094D75
:102BDC006F746F7220322053706565643A2000095F
:102BEC004D6F746F72203220506F736974696F6E01
:042BFC003A2000007B
:00000001FF
