:100000000C94B5010C9430070C94FF060C94CE06AA
:100010000C949D060C946C060C943B060C940A06FA
:100020000C94D9050C94E6010C94E6010C94E601BD
:100030000C94E6010C94E6010C94E6010C94E601A4
:100040000C94E6010C94E6010C94E6010C94E60194
:100050000C941E0B0C94E6010C94E6010C946107C1
:100060000C94E6010C943B050C9463040C94E6019B
:100070000C94E6010C94E6010C94E6010C94E60164
:100080000C94E6010C94E6010C94E6010C94E60154
:100090000C9408050C9424040C94E6010C94E601DD
:1000A0000C94E6010C94E6010C94E6010C94E60134
:1000B0000C94E6010C94E6010C94E6010C94E60124
:1000C0000C94E6010C94E6010C94E6010C94D50422
:1000D0000C94E5030C94E6010C94A2040C94A60382
:1000E0000C94E6019A029D0290029402D402A102AD
:1000F000A502AB02AF02B302B902BD02C102D40233
:10010000C702CB02CF02380F3B0F420F480F520FEE
:10011000570F5E0F630FFF0FFF0F680F6B0FFF0F7F
:10012000FF0FFF0F720FA408A908AE08B808310925
:10013000C208CA08D208DC08E608F008FF08090966
:10014000310913091D09270905A84CCDB2D44EB9B0
:100150003836A9020C50B9918688083CA6AAAA2A6A
:10016000BE000000803F0C9431090C94FF080C94F1
:10017000F9070C94C2080C94AC070C9419080C9461
:10018000B3020C9413090C94AE080C9427090C9438
:10019000480F0C9467120C94680F0C94B8080C94D8
:1001A0003B0F0C94A4080C94CF020C94720F0C9487
:1001B00035080C945A030C94D2080C94F0080C9453
:1001C000BD020C94A1020C949D020C94AB020C9401
:1001D000E6080C94CA080C94A9080C9409090C941C
:1001E000A5020C94AB070C949A020C941D090C9474
:1001F000C1020C94630F0C94420F0C94FF0F0C94EB
:10020000D4020C946B0F0C9402020C94EE070C9425
:10021000520F0C94B9020C94AF020C94DC080C94AD
:10022000380F0C9490020C9494020C945E0F0C9472
:100230005B120C94C7020C94CB020C945B020C94DE
:10024000570F0C94780300002100240027002A0097
:100250002D003000330001010000040107010A01F4
:1002600000002200250028002B002E003100340061
:1002700002010000050108010B010000200023001D
:10028000260029002C002F0032000001000003018D
:100290000601090105050505070508080808020209
:1002A00002020A0A08080404040401010101010110
:1002B00001010303030303030303040707070C0CF3
:1002C0000C0C0C0C0C0C02020202060606060606BA
:1002D00006060B0B0B0B0B0B0B0B0102102020085F
:1002E0000810204010204080020102010804020191
:1002F0000102040810204080804020100804020100
:100300008004020180402010080402010804020158
:1003100001020408102040800102040810204080DF
:100320000000090A02080B0C0D0706030401000077
:1003300000000000000000000000000000000000BD
:1003400000000000000000000000000011100F007D
:10035000000000000000000000000000000000009D
:1003600000000000000067125B1211241FBECFEFD7
:10037000D1E2DEBFCDBF00E00CBF13E0A0E0B2E0F1
:10038000E8E4F1E300E00BBF02C007900D92AE3647
:10039000B107D9F726E0AEE6B3E001C01D92AA3A54
:1003A000B207E1F711E0C4EBD1E000E006C021970D
:1003B0000109802FFE010E947618C33BD10780E01F
:1003C0000807A9F70E94490B0C9454130C940000E1
:1003D000FB01E05CFF4F20813181DB01AE5BBF4F51
:1003E0004D915C912F5F3F4F2F7333274217530777
:1003F00041F040815181DB01A40FB51F8C93318303
:10040000208308956091B3037091B40380917003C9
:1004100090917103681B790B072E000C880B990BC8
:100420000E94891624E339EA49E759E30E943E17FE
:1004300020E030E040E251E40E943E176093C103A7
:100440007093C2038093C3039093C4038091B3035A
:100450009091B40390937103809370036091AD0306
:100460007091AE0380916E0390916F03681B790BBE
:10047000072E000C880B990B0E94891624E339EA99
:1004800049E759E30E943E1720E030E040E251E4A2
:100490000E943E176093B7037093B8038093B9032B
:1004A0009093BA038091AD039091AE0390936F0344
:1004B00080936E030895CF92DF92EF92FF920F9395
:1004C0001F93CF93DF936C01EB017B01E40EF51ECC
:1004D00000E010E0CE15DF0561F06991D601ED91E5
:1004E000FC910190F081E02DC6011995080F191FAC
:1004F000F1CFC801DF91CF911F910F91FF90EF9045
:10050000DF90CF90089590E0FC013197E131F10543
:1005100008F04AC08827EE58FF4F8F4F0C9476188A
:10052000809180008F7703C0809180008F7D8093C1
:100530008000089584B58F7702C084B58F7D84BD17
:1005400008958091B0008F7703C08091B0008F7DB7
:100550008093B0000895809190008F7707C08091BC
:1005600090008F7D03C080919000877F80939000E2
:1005700008958091A0008F7707C08091A0008F7DA3
:1005800003C08091A000877F8093A0000895809190
:1005900020018F7707C0809120018F7D03C080915B
:1005A0002001877F809320010895CF93DF93282F28
:1005B00030E0F901E05EFC4F8491F901E652FD4F15
:1005C000D491F901EC56FD4FC491CC2391F08111E7
:1005D0000E948302EC2FF0E0EE0FFF1FE658FD4F64
:1005E000A591B491EC91ED2381E090E021F480E0BD
:1005F00002C080E090E0DF91CF9108953FB7F8947A
:100600008091770390917803A0917903B0917A0358
:1006100026B5A89B05C02F3F19F00196A11DB11D5D
:100620003FBFBA2FA92F982F8827820F911DA11D98
:10063000B11DBC01CD0142E0660F771F881F991FD5
:100640004A95D1F70895CF92DF92EF92FF92CF9320
:10065000DF936B017C010E94FE02EB01C114D10407
:10066000E104F10479F00E94FE026C1B7D0B683EF0
:100670007340A0F381E0C81AD108E108F108C8511D
:10068000DC4FECCFDF91CF91FF90EF90DF90CF90D8
:1006900008952FB7F894609173037091740380915B
:1006A0007503909176032FBF08951092AF031092B7
:1006B000B0030895CF93DF9384E10E94D502EC014B
:1006C00085E10E94D502C817D90731F08091AD03AA
:1006D0009091AE03019605C08091AD039091AE0359
:1006E00001979093AE038093AD03DF91CF9108956E
:1006F000CF93DF9382E10E94D502EC0183E10E9457
:10070000D502C817D90731F08091B3039091B40393
:10071000019705C08091B3039091B4030196909323
:10072000B4038093B303DF91CF91089580E696E000
:100730000E94350886EB95E00E9435088CE095E034
:100740000E94350882E694E00C9435081F920F92BF
:100750000FB60F9211240BB60F922F933F938F93E6
:100760009F93EF93FF9320911A0430911B04809183
:100770001C0490911D042817390731F48091310130
:100780008F7D8093310114C0E0911C04F0911D0411
:10079000E652FC4F208180911C0490911D0401962B
:1007A0008F73992790931D0480931C042093360126
:1007B000FF91EF919F918F913F912F910F900BBEE1
:1007C0000F900FBE0F901F9018951F920F920FB6AB
:1007D0000F9211240BB60F922F933F938F939F93F9
:1007E000EF93FF932091C4043091C5048091C60417
:1007F0009091C7042817390731F48091D1008F7D7B
:100800008093D10014C0E091C604F091C704EC5766
:10081000FB4F20818091C6049091C70401968F738D
:1008200099279093C7048093C6042093D600FF9124
:10083000EF919F918F913F912F910F900BBE0F9051
:100840000FBE0F901F9018951F920F920FB60F9228
:1008500011240BB60F922F933F938F939F93EF9397
:10086000FF9320916E0530916F05809170059091F6
:1008700071052817390731F48091C9008F7D809365
:10088000C90014C0E0917005F0917105E25DFA4F66
:100890002081809170059091710501968F73992741
:1008A00090937105809370052093CE00FF91EF9196
:1008B0009F918F913F912F910F900BBE0F900FBE84
:1008C0000F901F9018951F920F920FB60F92112440
:1008D0000BB60F922F933F938F939F93EF93FF93BA
:1008E000209118063091190680911A0690911B06E6
:1008F0002817390731F48091C1008F7D8093C100A2
:1009000014C0E0911A06F0911B06E852FA4F2081BC
:1009100080911A0690911B0601968F7399279093E8
:100920001B0680931A062093C600FF91EF919F91BA
:100930008F913F912F910F900BBE0F900FBE0F9094
:100940001F9018951F920F920FB60F9211240BB69D
:100950000F922F933F934F935F936F937F938F9358
:100960009F93AF93BF93EF93FF938091300182FDEC
:1009700007C0809136016EE174E00E94E80102C078
:1009800080913601FF91EF91BF91AF919F918F912F
:100990007F916F915F914F913F912F910F900BBE7F
:1009A0000F900FBE0F901F9018951F920F920FB6C9
:1009B0000F9211240BB60F922F933F934F935F9397
:1009C0006F937F938F939F93AF93BF93EF93FF9317
:1009D0008091D00082FD07C08091D60068EC74E061
:1009E0000E94E80102C08091D600FF91EF91BF9173
:1009F000AF919F918F917F916F915F914F913F91B7
:100A00002F910F900BBE0F900FBE0F901F90189557
:100A10001F920F920FB60F9211240BB60F922F93C5
:100A20003F934F935F936F937F938F939F93AF9376
:100A3000BF93EF93FF938091C80082FD07C0809120
:100A4000CE0062E775E00E94E80102C08091CE000E
:100A5000FF91EF91BF91AF919F918F917F916F9196
:100A60005F914F913F912F910F900BBE0F900FBE52
:100A70000F901F9018951F920F920FB60F9211248E
:100A80000BB60F922F933F934F935F936F937F9388
:100A90008F939F93AF93BF93EF93FF938091C00089
:100AA00082FD07C08091C6006CE176E00E94E801FB
:100AB00002C08091C600FF91EF91BF91AF919F91CD
:100AC0008F917F916F915F914F913F912F910F90F7
:100AD0000BBE0F900FBE0F901F9018951F93CF93D2
:100AE000DF93282F30E0F901E05EFC4F8491F9019B
:100AF000E652FD4FD491F901EC56FD4FC491CC2341
:100B0000C1F0162F81110E948302EC2FF0E0EE0F4E
:100B1000FF1FE05AFD4FA591B4919FB7F8941111B2
:100B200004C08C91D095D82302C0EC91DE2BDC93CD
:100B30009FBFDF91CF911F910895CF93DF9390E0F6
:100B4000FC01E652FD4F2491FC01EC56FD4F8491CF
:100B5000882361F190E0880F991FFC01EA5BFD4F4B
:100B6000C591D491FC01E05AFD4FA591B49161115A
:100B700009C09FB7F8948881209582238883EC91DF
:100B80002E230BC0623061F49FB7F8948881322F16
:100B9000309583238883EC912E2B2C939FBF06C026
:100BA0008FB7F894E8812E2B28838FBFDF91CF91E8
:100BB00008951F920F920FB60F9211240BB60F9249
:100BC0002F933F934F935F936F937F938F939F9355
:100BD000AF93BF93EF93FF938091890390918A0322
:100BE000892B29F0E0918903F0918A031995FF91EF
:100BF000EF91BF91AF919F918F917F916F915F9195
:100C00004F913F912F910F900BBE0F900FBE0F9001
:100C10001F9018951F920F920FB60F9211240BB6CA
:100C20000F922F933F934F935F936F937F938F9385
:100C30009F93AF93BF93EF93FF938091870390911E
:100C40008803892B29F0E0918703F0918803199597
:100C5000FF91EF91BF91AF919F918F917F916F9194
:100C60005F914F913F912F910F900BBE0F900FBE50
:100C70000F901F9018951F920F920FB60F9211248C
:100C80000BB60F922F933F934F935F936F937F9386
:100C90008F939F93AF93BF93EF93FF9380917D03C7
:100CA00090917E03892B29F0E0917D03F0917E03E2
:100CB0001995FF91EF91BF91AF919F918F917F9186
:100CC0006F915F914F913F912F910F900BBE0F90BD
:100CD0000FBE0F901F9018951F920F920FB60F9294
:100CE00011240BB60F922F933F934F935F936F9303
:100CF0007F938F939F93AF93BF93EF93FF938091D5
:100D00007B0390917C03892B29F0E0917B03F09188
:100D10007C031995FF91EF91BF91AF919F918F91B6
:100D20007F916F915F914F913F912F910F900BBEEB
:100D30000F900FBE0F901F9018951F920F920FB635
:100D40000F9211240BB60F922F933F934F935F9303
:100D50006F937F938F939F93AF93BF93EF93FF9383
:100D60008091850390918603892B29F0E09185037A
:100D7000F09186031995FF91EF91BF91AF919F91EB
:100D80008F917F916F915F914F913F912F910F9034
:100D90000BBE0F900FBE0F901F9018951F920F92D1
:100DA0000FB60F9211240BB60F922F933F934F93D0
:100DB0005F936F937F938F939F93AF93BF93EF93C3
:100DC000FF938091830390918403892B29F0E09114
:100DD0008303F09184031995FF91EF91BF91AF9137
:100DE0009F918F917F916F915F914F913F912F9143
:100DF0000F900BBE0F900FBE0F901F9018951F9273
:100E00000F920FB60F9211240BB60F922F933F93B0
:100E10004F935F936F937F938F939F93AF93BF9302
:100E2000EF93FF938091810390918203892B29F0A6
:100E3000E0918103F09182031995FF91EF91BF91A9
:100E4000AF919F918F917F916F915F914F913F9162
:100E50002F910F900BBE0F900FBE0F901F90189503
:100E60001F920F920FB60F9211240BB60F922F9371
:100E70003F934F935F936F937F938F939F93AF9322
:100E8000BF93EF93FF9380917F0390918003892B11
:100E900029F0E0917F03F09180031995FF91EF9184
:100EA000BF91AF919F918F917F916F915F914F9182
:100EB0003F912F910F900BBE0F900FBE0F901F9080
:100EC00018951F920F920FB60F9211242F933F93F4
:100ED0008F939F93AF93BF9380917303909174030B
:100EE000A0917503B09176033091720323E0230F34
:100EF0002D3720F40196A11DB11D05C026E8230F52
:100F00000296A11DB11D20937203809373039093E9
:100F10007403A0937503B093760380917703909147
:100F20007803A0917903B0917A030196A11DB11DB8
:100F30008093770390937803A0937903B0937A0317
:100F4000BF91AF919F918F913F912F910F900FBEC5
:100F50000F901F90189508950F931F93CF93DF93D1
:100F6000FC01A685B7858D01005C1F4FE8018881D3
:100F7000998101968F739927AD014E5B5F4FEA010E
:100F80002881398128173907D1F3E801288139816F
:100F9000A20FB31F6C93A685B785A05CBF4F1196B7
:100FA0009C938E93A689B7892C9181E090E0078C61
:100FB00002C0880F991F0A94E2F7822B8C9381E07C
:100FC00081A30488F589E02D80818064808381E09D
:100FD00090E0DF91CF911F910F910895FC0181A1C5
:100FE000882329F0A489B5898C9186FFFBCF11A2B3
:100FF0000895FC01A485B585FD01E05CFF4F2081CB
:1010000031813296808191812817390779F080816A
:101010009181A80FB91F8C91208131812F5F3F4FA3
:101020002F7333273183208390E008958FEF9FEF54
:101030000895DC011C96ED91FC911D97DF01A05CE9
:10104000BF4F2D913C91119712968D919C911197C4
:101050002817390739F08D919C91E80FF91F80818D
:1010600090E008958FEF9FEF0895FC01248535856A
:10107000F901E05CFF4F80819181329620813181BE
:10108000821B930B8F7399270895CF93DF93EC0105
:10109000198218821B821A821D821C821E8261E0C4
:1010A00070E080E090E00E947814009759F09983F6
:1010B00088831B821A822C813D81232B91F4FC01B1
:1010C00010820FC088819981009711F00E94EF1360
:1010D000198218821D821C821B821A82DF91CF9195
:1010E00008951D821C8266E672E088819981DF91F5
:1010F000CF910C9466151F93CF93DF93182FEB01BC
:1011000061E00E949D05209711F460E004C0CF3F8C
:10111000D10539F461E0812FDF91CF911F910C94BB
:101120006E05E12FF0E0E05EFC4FE4918E2F90E041
:10113000FC013197E131F10508F093C08827ED56A5
:10114000FF4F8F4F0C94761884B5806884BDC7BD5F
:101150008DC084B5806284BDC8BD88C08091800088
:10116000806880938000D0938900C09388007EC0FF
:1011700080918000806280938000D0938B00C09328
:101180008A0074C08091B00080688093B000C093E2
:10119000B3006CC08091B00080628093B000C093B7
:1011A000B40064C080919000806880939000D093D8
:1011B0009900C09398005AC08091900080628093FB
:1011C0009000D0939B00C0939A0050C080919000F3
:1011D000886080939000D0939D00C0939C0046C08F
:1011E0008091A00080688093A0008091A0008F7BF8
:1011F0008093A000D093A900C093A80037C080912D
:10120000A00080628093A000D093AB00C093AA009E
:101210002DC08091A00088608093A000D093AD0085
:10122000C093AC0023C0809120018068809320018E
:10123000D0932901C093280119C0809120018062B8
:1012400080932001D0932B01C0932A010FC080917D
:101250002001886080932001D0932D01C0932C0140
:1012600005C0C038D1050CF055CF4FCFDF91CF91DD
:101270001F910895009769F0FC0101900020E9F7A3
:101280003197AF01481B590BBC0180E696E00C94E6
:101290005B0280E090E008950C943A09CF93DF93CD
:1012A0006DE080E696E00E94AC07EC016AE080E623
:1012B00096E00E94AC078C0F9D1FDF91CF9108959F
:1012C0008F929F92AF92BF92EF92FF920F931F93D4
:1012D000CF93DF93CDB7DEB7A1970FB6F894DEBFFB
:1012E0000FBECDBF162F042F19A2423008F40AE01A
:1012F0007E0121E2E20EF11C802E912CA12CB12C5A
:10130000612FA50194010E945418029F1019112405
:1013100081E0E81AF1081A3014F4105D01C0195C7C
:10132000F7011083122F732FCA01232B242B252B97
:1013300039F7C7010E943A09A1960FB6F894DEBFAB
:101340000FBECDBFDF91CF911F910F91FF90EF9016
:10135000BF90AF909F908F900895CF9397FF05C057
:10136000919581959109C1E001C0C0E09C012139AE
:1013700081E0380714F020E931E043E3429FC001E7
:10138000439F900D112460E570E00E944018809109
:101390009D060E947B08CC2311F061E001C060E053
:1013A0008091A106CF910C946E05CF9397FF05C055
:1013B000919581959109C1E001C0C0E09C0121395E
:1013C00081E0380714F020E931E043E3429FC00197
:1013D000439F900D112460E570E00E9440188091B9
:1013E0009C060E947B088091D9038C1711F061E064
:1013F00001C060E08091A006CF910C946E05CF9261
:10140000DF92EF92FF92CF93DF936C01990FEE087A
:10141000FF08F7FE19C06DE280E696E00E94AC0777
:10142000EC0166277727CB016C197D098E099F098E
:101430004AE00E9460098C0F9D1FDF91CF91FF90C1
:10144000EF90DF90CF9008954AE0C701B601DF9199
:10145000CF91FF90EF90DF90CF900C9460098F9226
:101460009F92AF92BF92CF92DF92EF92FF920F9333
:101470001F93CF93DF936B017C01142F9B01AC0171
:101480000E94B317882319F082E693E027C0460133
:101490005701E894B7F82FEF3FEF4FE75FE7C5013B
:1014A000B4010E94B31781110DC02FEF3FEF4FE73A
:1014B0005FE7C501B4010E94DA1518161CF486E630
:1014C00093E00CC02FEF3FEF4FE75FE4C701B60199
:1014D0000E943917181684F48AE693E0DF91CF91C1
:1014E0001F910F91FF90EF90DF90CF90BF90AF9042
:1014F0009F908F900C943A092FEF3FEF4FE75FECEE
:10150000C701B6010E94DA1587FDE6CF20E030E082
:10151000A901C701B6010E94DA1587FF0BC06DE271
:1015200080E696E00E94AC07EC01F7FAF094F7F839
:10153000F09402C0C0E0D0E000E060E070E080E045
:101540009FE3101741F020E030E040E251E40E94B8
:10155000DF150F5FF6CFA70196010E946E156B0194
:101560007C010E9458164B015C014AE00E94600910
:10157000C80FD91F1123A9F1C501B4010E94871614
:101580009B01AC01C701B6010E946D156B017C0186
:1015900085E792E00E943A09C80FD91F20E030E0A9
:1015A00040E251E4C701B6010E943E174B015C01C5
:1015B0000E9451166B017C01CB010E94FF09C80FEC
:1015C000D91FB601DD0C880B990B0E9489169B016F
:1015D000AC01C501B4010E946D156B017C01115075
:1015E000E9F6CE01DF91CF911F910F91FF90EF901F
:1015F000DF90CF90BF90AF909F908F9008958633EB
:1016000008F0865390917B00282F2870977F922BAB
:1016100090937B008770806480937C0080917A0037
:10162000806480937A0080917A0086FDFCCF80915F
:1016300078002091790090E0922B08951F920F92EC
:101640000FB60F9211240BB60F922F933F934F9327
:101650005F936F937F938F939F93AF93BF93EF931A
:10166000FF93E0910602F09107021995FF91EF9127
:10167000BF91AF919F918F917F916F915F914F91AA
:101680003F912F910F900BBE0F900FBE0F901F90A8
:101690001895789484B5826084BD84B5816084BDDA
:1016A00085B5826085BD85B5816085BD80916E0000
:1016B000816080936E001092810080918100826031
:1016C000809381008091810081608093810080916E
:1016D00080008160809380008091B100846080935D
:1016E000B1008091B00081608093B0008091910042
:1016F000826080939100809191008160809391003D
:10170000809190008160809390008091A100826020
:101710008093A1008091A10081608093A1008091BD
:10172000A00081608093A00080912101826080935D
:10173000210180912101816080932101809120010C
:1017400081608093200180917A00846080937A0088
:1017500080917A00826080937A0080917A00816023
:1017600080937A0080917A00806880937A0010924A
:10177000C10062E086E10E949D0562E087E10E946F
:101780009D0562E088E10E949D0562E089E10E947A
:101790009D0561E08AE10E949D0561E08BE10E9468
:1017A0009D0561E08CE10E949D0561E08DE10E9454
:1017B0009D05E0917406F091750681E090E09C0132
:1017C0000090800602C0220F331F0A94E2F72083A4
:1017D000E0917006F09171061082E0917206F0912E
:1017E0007306C0E1C08310928106E0917606F09105
:1017F000770640819C0100907C0602C0220F331FB7
:101800000A94E2F7242B2083E0917606F091770684
:1018100040819C0100907D0602C0220F331F0A9474
:10182000E2F7242B2083E0917606F0917706408141
:101830009C0100907E0602C0220F331F0A94E2F73B
:10184000242B2083E0917606F0917706208100908A
:101850007F0602C0880F991F0A94E2F780958223C1
:10186000808382E292E00E944C0987E692E00E9427
:101870003A090E944E09C09381001092800084EDC5
:1018800090E3909387008093860083E180938100AA
:1018900082E092E09093070280930602C1E0C09339
:1018A0006F0062E082E10E949D0562E083E10E9498
:1018B0009D0562E084E10E949D0562E085E10E9451
:1018C0009D0587E792E00E943A090E944E0961E077
:1018D00080919E060E949D0561E080919F060E9476
:1018E0009D0561E080919C060E949D0562E08091CB
:1018F000A2060E949D0560E08091A4060E949D05BD
:1019000061E08091A0060E949D0561E08091A106A2
:101910000E949D0561E080919D060E949D0562E008
:101920008091A3060E949D0560E08091A5060E941B
:101930009D0580E090E00E94D50980E090E00E9443
:10194000AD0961E080919E060E946E0561E0809184
:101950009F060E946E0561E070E080E090E00E94CA
:1019600023038091A4060E94FF0A90939906809316
:1019700098068091A5060E94FF0A90939B0680938B
:101980009A0668EE73E080E090E00E94230388E707
:1019900093E09093860380938503809169008F7311
:1019A000806480936900EB9A8AE593E090938203C8
:1019B0008093810380916900837F846080936900B4
:1019C000E99AC093D9030E94490360938B037093F3
:1019D0008C0380938D0390938E0322242394312CC7
:1019E0000E9449036093D5037093D6038093D70375
:1019F0009093D803C0910402D0910502209709F476
:101A0000B2C10E9449036B017C016093D5037093BE
:101A1000D6038093D7039093D803C330D10509F43C
:101A2000C9C03CF4C130D10561F0229709F47FC0F0
:101A30009AC1C430D10509F43BC1259709F456C1B8
:101A400092C18091A7039091A803A091A903B0919E
:101A5000AA03C816D906EA06FB0618F081E08093AF
:101A6000AF038091AF03882339F022E030E0309358
:101A700005022093040277C1809186069091870623
:101A8000A0918806B0918906A7019601281B390B01
:101A90004A0B5B0BCA01B9010E9487164B015C011E
:101AA000609108027091090280910A0290910B02E4
:101AB0000E9487169B01AC01C501B4010E94DF158D
:101AC0002BED3FE049EC5FE30E943E170E94AB170D
:101AD0004B015C0160910202709103028091C90385
:101AE0009091CA03681B790B072E000C880B990B89
:101AF0000E9489162B013C01A5019401C501B40186
:101B00000E943E179B01AC01C301B2010E943E1727
:101B10000E9451167093D0036093CF03C092930339
:101B2000D0929403E0929503F09296031AC18091AB
:101B3000930390919403A0919503B0919603A7010C
:101B40009601281B390B4A0B5B0BDA01C901893955
:101B50009A43A105B10548F1C0928606D092870646
:101B6000E0928806F092890684ED90E3A0E0B0E070
:101B70008093080290930902A0930A02B0930B028B
:101B800094EDC90E90E3D91EE11CF11CC092A7038D
:101B9000D092A803E092A903F092AA03A3E0B0E0D8
:101BA000B0930502A0930402DCC0809102029091E0
:101BB000030297C08091A7039091A803A091A90365
:101BC000B091AA03C816D906EA06FB0618F081E010
:101BD0008093B0038091B003882339F0E4E0F0E013
:101BE000F0930502E0930402BEC0809186069091B6
:101BF0008706A0918806B0918906A7019601281B47
:101C0000390B4A0B5B0BCA01B9010E9487164B01C5
:101C10005C01609108027091090280910A02909122
:101C20000B020E9487169B01AC01C501B4010E9402
:101C3000DF152BED3FE049EC5FE30E943E170E9469
:101C4000AB174B015C01609102027091030280911D
:101C5000C9039091CA03681B790B072E000C880BEF
:101C6000990B0E9489162B013C01A5019401C50125
:101C7000B4010E943E179B01AC0160E070E080E877
:101C80009FE30E946D159B01AC01C301B2010E944C
:101C90003E170E9451167093D0036093CF03C092F9
:101CA0008F03D0929003E0929103F092920359C077
:101CB00080918F0390919003A0919103B091920332
:101CC000A7019601281B390B4A0B5B0BDA01C901EE
:101CD0008D359444A105B105F0F48091C90390912C
:101CE000CA039093D0038093CF033DC080918B03B0
:101CF00090918C03A0918D03B0918E03A701960162
:101D0000281B390B4A0B5B0BDA01C9018938934157
:101D1000A105B10540F1C0928606D0928706E092F7
:101D20008806F092890688E99AE3A0E0B0E0809303
:101D3000080290930902A0930A02B0930B0298E95B
:101D4000C90E9AE3D91EE11CF11CC092A703D092E0
:101D5000A803E092A903F092AA0330920502209210
:101D600004020E9455038091D5039091D603A0915F
:101D7000D703B091D8034091D1035091D203609121
:101D8000D3037091D403841B950BA60BB70B843639
:101D90009105A105B10508F442C1C12CD12CCFEFAA
:101DA000DFEF00E010E061E00115110509F460E0EB
:101DB0008AE10E946E0561E00130110509F460E0DE
:101DC0008BE10E946E0561E00230110509F460E0CC
:101DD0008CE10E946E0561E00330110509F460E0BA
:101DE0008DE10E946E05D801A956BC4F7D015601B8
:101DF00046E1942E892D0E94D502992721E0009773
:101E000009F020E0892B29F4F7018081811101C0BC
:101E1000E501D7012C939394BFEFAB1ABB0AE4E022
:101E2000EE0EF11CFAE19F12E5CF0F5F1F4F24E089
:101E3000C20ED11C0430110509F0B5CF8091040207
:101E400090910502009709F056C0C031D10508F005
:101E5000D6C0FE014091B1035091B2032091CF034F
:101E60003091D0038827ED57FF4F8F4F0C94761891
:101E70004B50510902C0455F5F4F5093B2034093EE
:101E8000B103BDC08091AB039091AC030B9705C02B
:101E90008091AB039091AC030B969093AC0380932D
:101EA000AB03ADC03093030220930202A8C046EFFB
:101EB00059E05093030240930202A1C03093CA0339
:101EC0002093C9039CC01092CA031092C90397C003
:101ED0002E56310902C022593F4F3093D003209330
:101EE000CF038DC080910002909101029093050272
:101EF0008093040284C0C130D10509F445C0A4F523
:101F0000CD2B09F07CC00E9449036093D5037093E8
:101F1000D6038093D7039093D8036093860670937B
:101F20008706809388069093890628E833E140E08D
:101F300050E0209308023093090240930A02509324
:101F40000B02DC01CB0188579C4EAF4FBF4F8093F3
:101F5000A7039093A803A093A903B093AA03309278
:101F600005022092040249C0C230D10509F43FC0E5
:101F7000239709F044C090930102809300021092CD
:101F800005021092040239C00E9449036093D503F0
:101F90007093D6038093D7039093D80360938606FB
:101FA00070938706809388069093890628E833E12A
:101FB00040E050E0209308023093090240930A0267
:101FC00050930B02DC01CB0188579C4EAF4FBF4FA3
:101FD0008093A7039093A803A093A903B093AA03A7
:101FE00043E050E0509305024093040206C085E0B0
:101FF00090E090930502809304020E945503809123
:10200000D5039091D603A091D703B091D8038093C4
:10201000D1039093D203A093D303B093D403C09180
:10202000CF03D091D0032091B3033091B4038091BA
:10203000B1039091B203820F931F9093C0038093DA
:10204000BF03C090C503D090C603E090C703F090D3
:10205000C803BE01681B790B072E000C880B990B77
:102060000E94891620E030E040E850EC0E943E17C4
:10207000A70196010E946D152AE939E949E55FE358
:102080000E943E17A70196010E946E156B017C010C
:1020900020E030E040EF53EC0E94DA1587FD11C0DC
:1020A00020E030E040EF53E4C701B6010E94391749
:1020B00018166CF4C12CD12C30EFE32E33E4F32E40
:1020C00006C0C12CD12C20EFE22E23ECF22EC092C0
:1020D000C503D092C603E092C703F092C8031091E3
:1020E000B003111105C08091AF03882309F43EC0ED
:1020F00020E030E0A901C701B6010E943917181687
:1021000024F0F7FAF094F7F8F09420E030E048E497
:1021100052E4C701B6010E94DA1587FF27C0C090BC
:10212000C103D090C203E090C303F090C40320E049
:1021300030E0A901C701B6010E943917181624F032
:10214000F7FAF094F7F8F0942AE037ED43EA5CE30D
:10215000C701B6010E94DA1587FF08C01092C503B7
:102160001092C6031092C7031092C8036091C50372
:102170007091C6038091C7039091C8030E945116C5
:10218000CB010E94D5098091A2060E94D502892B1D
:10219000E1F460E080919E060E946E0560E080910F
:1021A0009F060E946E0561E070E080E090E00E9472
:1021B000230387E992E00E944C090E9449034AE008
:1021C0000E9460090E944E09FFCF2091AD0330911B
:1021D000AE038091AB039091AC03820F931F909359
:1021E000B6038093B503C090BB03D090BC03E090CE
:1021F000BD03F090BE03C81BD90BBE01DD0F880BD9
:10220000990B0E94891620E030E040E850EC0E94D3
:102210003E17A70196010E946D152AE939E949E5A3
:102220005FE30E943E17A70196010E946E156B01A5
:102230007C0120E030E040EF53EC0E94DA1587FD8E
:1022400011C020E030E040EF53E4C701B6010E9426
:10225000391718166CF4C12CD12C90EFE92E93E4A9
:10226000F92E06C0C12CD12C80EFE82E83ECF82E7D
:10227000C092BB03D092BC03E092BD03F092BE03B8
:10228000111105C08091AF03882309F43EC020E0FE
:1022900030E0A901C701B6010E943917181624F0D1
:1022A000F7FAF094F7F8F09420E030E048E452E4D4
:1022B000C701B6010E94DA1587FF27C0C090B70397
:1022C000D090B803E090B903F090BA0320E030E07A
:1022D000A901C701B6010E943917181624F0F7FAB0
:1022E000F094F7F8F0942AE037ED43EA5CE3C70195
:1022F000B6010E94DA1587FF08C01092BB03109246
:10230000BC031092BD031092BE036091BB03709199
:10231000BC038091BD039091BE030E945116CB0176
:102320000E94AD098091A3060E94D502892BE1F499
:1023300060E080919E060E946E0560E080919F069D
:102340000E946E0561E070E080E090E00E9423034F
:1023500087EA92E00E944C090E9449034AE00E94E9
:1023600060090E944E09FFCF8091D5039091D6035A
:10237000A091D703B091D8034091CB035091CC03E7
:102380006091CD037091CE03841B950BA60BB70B08
:10239000883E9340A105B10508F48AC087EB92E01E
:1023A0000E944C0980910402909105020E94FF094D
:1023B00087EC92E00E944C098091CF039091D0036A
:1023C0000E94FF0989ED92E00E944C09809102026F
:1023D000909103020E94FF0987EE92E00E944C094F
:1023E0008091C9039091CA030E94FF0986EF92E091
:1023F0000E944C096091C5037091C6038091C70388
:102400009091C80342E00E942F0A87E093E00E9467
:102410004C096091C1037091C2038091C3039091F4
:10242000C40342E00E942F0A88E193E00E944C0915
:102430008091BF039091C0030E94FF098CE293E05A
:102440000E944C096091BB037091BC038091BD0355
:102450009091BE0342E00E942F0A8DE393E00E9418
:102460004C096091B7037091B8038091B9039091C2
:10247000BA0342E00E942F0A8EE493E00E944C09C6
:102480008091B5039091B6030E94FF090E944E0906
:102490008091D5039091D603A091D703B091D80332
:1024A0008093CB039093CC03A093CD03B093CE0342
:1024B0000E94960395CA80918A0690918B060E948D
:1024C000EF1380919106909192060C94EF13CF92A6
:1024D000DF92EF92FF92E0E6F6E01382128288EE3E
:1024E000C82E83E0D82EE12CF12CC482D582E6825E
:1024F000F78266E172E0718360838CE196E09587F4
:10250000848788ED95E09787868785EC90E0918BAE
:10251000808B84EC90E0938B828B80EC90E0958BA9
:10252000848B81EC90E0978B868B82EC90E0918F8E
:10253000808F86EC90E0938F828F84E0848F43E0DD
:10254000458F97E0968F35E0378F21E020A3E6EBAB
:10255000F5E013821282C482D582E682F78271830B
:102560006083A2E7B5E0B587A487AEE2B5E0B787A0
:10257000A687ADECB0E0B18BA08BACECB0E0B38B38
:10258000A28BA8ECB0E0B58BA48BA9ECB0E0B78B24
:10259000A68BAAECB0E0B18FA08FAEECB0E0B38F09
:1025A000A28F848F458F968F378F20A3ECE0F5E0C4
:1025B00013821282C482D582E682F782718360839D
:1025C000A8ECB4E0B587A487A4E8B4E0B787A687F1
:1025D000A5EDB0E0B18BA08BA4EDB0E0B38BA28BE6
:1025E000A0EDB0E0B58BA48BA1EDB0E0B78BA68BCE
:1025F000A2EDB0E0B18FA08FA6EDB0E0B38FA28FB7
:10260000848F458F968F378F20A3E2E6F4E0138204
:102610001282C482D582E682F782718360836EE182
:1026200074E0758764876AED73E07787668765E392
:1026300071E0718B608B64E371E0738B628B60E39C
:1026400071E0758B648B61E371E0778B668B62E37D
:1026500071E0718F608F66E371E0738F628F848F9A
:10266000458F968F378F20A3E8E9F6E022E0268396
:1026700026E02287908799E0948396E39487878366
:102680008CE0838788E081878AE0858387E385877C
:1026900081E996E00E9445088AE896E0FF90EF9075
:1026A000DF90CF900C944508F8940C9492180F93F7
:1026B0001F93CF93DF938230910510F482E090E076
:1026C000E091A806F091A90620E030E0A0E0B0E09B
:1026D000309719F1408151810281138148175907C0
:1026E000C8F08417950769F4109731F012960C938F
:1026F000129713961C9327C00093A8061093A9065F
:1027000022C02115310519F04217530718F49A0118
:10271000BD01EF01DF01F801DBCF21153105F9F033
:10272000281B390B2430310580F48A819B81611587
:10273000710521F0FB019383828304C09093A90665
:102740008093A806FE01329644C0FE01E20FF31FFB
:102750008193919322503109398328833AC0209183
:10276000A6063091A706232B41F420910E0230914A
:102770000F023093A7062093A60620910C023091F9
:102780000D022115310541F42DB73EB740911002DD
:1027900050911102241B350BE091A606F091A7067B
:1027A000E217F307A0F42E1B3F0B2817390778F028
:1027B000AC014E5F5F4F2417350748F04E0F5F1F87
:1027C0005093A7064093A6068193919302C0E0E040
:1027D000F0E0CF01DF91CF911F910F910895CF933A
:1027E000DF93009709F481C0FC01329713821282B3
:1027F000A091A806B091A906109781F4208131819B
:10280000820F931F2091A6063091A706281739073B
:1028100051F5F093A706E093A60667C0ED0120E00E
:1028200030E0CE17DF0740F44A815B819E014115FD
:102830005105F1F0EA01F5CFD383C2834081518184
:10284000840F951FC817D90759F488819981840F7F
:10285000951F0296918380838A819B8193838283D3
:102860002115310529F4F093A906E093A8063DC08F
:10287000E901FB83EA8349915991C40FD51FEC17F5
:10288000FD0761F480819181840F951F0296E90113
:1028900099838883828193819B838A83E0E0F0E03F
:1028A00012968D919C911397009719F0FD01DC0110
:1028B000F7CF8D919C9111979D012E5F3F4F820F15
:1028C000931F2091A6063091A7062817390769F4AF
:1028D000309729F41092A9061092A80602C013821C
:1028E0001282B093A706A093A606DF91CF91089518
:1028F0006F927F928F929F92AF92BF92CF92DF9210
:10290000EF92FF920F931F93CF93DF93009789F479
:10291000CB01DF91CF911F910F91FF90EF90DF904E
:10292000CF90BF90AF909F908F907F906F900C94BE
:102930005713FC01E60FF71F9C0122503109E217E3
:10294000F30708F4A9C0EC01D9010D911C9111976E
:1029500006171707B0F00530110508F49BC0C80131
:1029600004978617970708F495C002501109061BB3
:10297000170B019311936D937C93CF010E94EF137A
:1029800089C05B01A01AB10A4C01800E911EA09172
:10299000A806B091A906612C712CE12CF12C10979E
:1029A00009F446C08D919C911197A815B905B1F510
:1029B0006C0142E0C40ED11CCA14DB0478F14C0156
:1029C0008A189B08640142E0C40ED11C1296BC9088
:1029D00012971396AC91B5E0CB16D10440F0B282B9
:1029E000A38391828082D9016D937C9309C00E5F8D
:1029F0001F4F800F911FF90191838083EB2DFA2FD8
:102A0000E114F10431F0D7011396FC93EE93129781
:102A100041C0F093A906E093A8063CC06816790669
:102A200008F43C017D0112960D90BC91A02DB7CF0A
:102A30008091A6069091A70688169906E1F466167D
:102A40007706C8F480910C0290910D02009741F432
:102A50008DB79EB74091100250911102841B950BC7
:102A6000E817F907C8F4F093A706E093A606F90162
:102A7000718360830FC0CB010E9457137C010097C4
:102A800059F0A801BE010E945D15CE010E94EF130E
:102A9000C70104C0CE0102C080E090E0DF91CF9179
:102AA0001F910F91FF90EF90DF90CF90BF90AF906C
:102AB0009F908F907F906F900895FB01DC0102C082
:102AC00001900D9241505040D8F70895FB01DC0170
:102AD00001900D920020E1F708955058BB27AA27D6
:102AE0000E9485150C94FF160E94F11638F00E9482
:102AF000F81620F039F49F3F19F426F40C94EE16E2
:102B00000EF4E095E7FB0C94E816E92F0E941017ED
:102B100058F3BA17620773078407950720F079F412
:102B2000A6F50C9432170EF4E0950B2EBA2FA02DBB
:102B30000B01B90190010C01CA01A0011124FF276A
:102B4000591B99F0593F50F4503E68F11A16F04065
:102B5000A22F232F342F4427585FF3CF4695379564
:102B60002795A795F0405395C9F77EF41F16BA0B29
:102B7000620B730B840BBAF09150A1F0FF0FBB1FD7
:102B8000661F771F881FC2F70EC0BA0F621F731F20
:102B9000841F48F4879577956795B795F7959E3F7D
:102BA00008F0B0CF9395880F08F09927EE0F97950E
:102BB000879508950E94C41608F481E008950E9444
:102BC000F3150C94FF160E94F81658F00E94F116A7
:102BD00040F029F45F3F29F00C94E81651110C9451
:102BE00033170C94EE160E94101768F39923B1F373
:102BF000552391F3951B550BBB27AA276217730723
:102C0000840738F09F5F5F4F220F331F441FAA1FB6
:102C1000A9F335D00E2E3AF0E0E832D09150504072
:102C2000E695001CCAF72BD0FE2F29D0660F771F20
:102C3000881FBB1F261737074807AB07B0E809F006
:102C4000BB0B802DBF01FF2793585F4F3AF09E3F8B
:102C5000510578F00C94E8160C9433175F3FE4F3B9
:102C6000983ED4F3869577956795B795F7959F5FCE
:102C7000C9F7880F911D9695879597F90895E1E01A
:102C8000660F771F881FBB1F621773078407BA0779
:102C900020F0621B730B840BBA0BEE1F88F7E095D4
:102CA00008950E9458166894B1110C943317089532
:102CB0000E94181788F09F5798F0B92F9927B7519D
:102CC000B0F0E1F0660F771F881F991F1AF0BA95D0
:102CD000C9F714C0B13091F00E943217B1E00895E5
:102CE0000C943217672F782F8827B85F39F0B93FD7
:102CF000CCF3869577956795B395D9F73EF4909583
:102D00008095709561957F4F8F4F9F4F0895E89400
:102D100009C097FB3EF490958095709561957F4F23
:102D20008F4F9F4F9923A9F0F92F96E9BB279395D1
:102D3000F695879577956795B795F111F8CFFAF4E1
:102D4000BB0F11F460FF1BC06F5F7F4F8F4F9F4F12
:102D500016C0882311F096E911C0772321F09EE870
:102D6000872F762F05C0662371F096E8862F70E0D6
:102D700060E02AF09A95660F771F881FDAF7880FB0
:102D80009695879597F90895990F0008550FAA0B06
:102D9000E0E8FEEF16161706E807F907C0F012166E
:102DA0001306E407F50798F0621B730B840B950B71
:102DB00039F40A2661F0232B242B252B21F40895C6
:102DC0000A2609F4A140A6958FEF811D811D089563
:102DD00097F99F6780E870E060E008959FEF80ECCE
:102DE000089500240A941616170618060906089571
:102DF00000240A9412161306140605060895092ED7
:102E00000394000C11F4882352F0BB0F40F4BF2B45
:102E100011F460FF04C06F5F7F4F8F4F9F4F089585
:102E200057FD9058440F551F59F05F3F71F047957B
:102E3000880F97FB991F61F09F3F79F08795089560
:102E4000121613061406551FF2CF4695F1DF08C07F
:102E5000161617061806991FF1CF8695710561059C
:102E600008940895E894BB2766277727CB0197F944
:102E700008950E94C41608F48FEF08950E94511718
:102E80000C94FF160E94F11638F00E94F81620F0FC
:102E9000952311F00C94E8160C94EE1611240C9462
:102EA00033170E94101770F3959FC1F3950F50E0F0
:102EB000551F629FF001729FBB27F00DB11D639FEC
:102EC000AA27F00DB11DAA1F649F6627B00DA11D92
:102ED000661F829F2227B00DA11D621F739FB00D38
:102EE000A11D621F839FA00D611D221F749F3327A8
:102EF000A00D611D231F849F600D211D822F762F41
:102F00006A2F11249F5750409AF0F1F088234AF01D
:102F1000EE0FFF1FBB1F661F771F881F9150504089
:102F2000A9F79E3F510580F00C94E8160C943317D6
:102F30005F3FE4F3983ED4F3869577956795B79510
:102F4000F795E7959F5FC1F7FE2B880F911D96952A
:102F5000879597F908959F930E94BA170F9007FCE1
:102F6000EE5F0C94E3170E94C416880B990B08952A
:102F70000C94EE160E941817D8F3E894E0E0BB27F3
:102F80009F57F0F02AED3FE049EC06C0EE0FBB0F73
:102F9000661F771F881F28F0B23A620773078407FD
:102FA00028F0B25A620B730B840BE3959A9572F773
:102FB000803830F49A95BB0F661F771F881FD2F7B1
:102FC00090480C94F917EF93E0FF07C0A2EA2AEDAE
:102FD0003FE049EC5FEB0E9485150E94FF160F90C1
:102FE000039401FC9058E8E4F1E00C9405189F3F2D
:102FF00031F0915020F4879577956795B795880FB4
:10300000911D9695879597F908959F938F937F9338
:103010006F93FF93EF939B01AC010E943E17EF91DA
:10302000FF910E9419182F913F914F915F910C943D
:103030003E17DF93CF931F930F93FF92EF92DF9290
:103040007B018C01689406C0DA2EEF010E945117B3
:10305000FE01E894A5912591359145915591A6F3EE
:10306000EF010E948515FE019701A801DA9469F726
:10307000DF90EF90FF900F911F91CF91DF91089516
:1030800097FB072E16F4009407D077FD09D00E9415
:103090007E1807FC05D03EF4909581959F4F0895CA
:1030A000709561957F4F0895A1E21A2EAA1BBB1B54
:1030B000FD010DC0AA1FBB1FEE1FFF1FA217B30704
:1030C000E407F50720F0A21BB30BE40BF50B661F1A
:1030D000771F881F991F1A9469F7609570958095DE
:1030E00090959B01AC01BD01CF010895EE0FFF1F2C
:1030F000881F8BBF0790F691E02D1994AA1BBB1B6C
:1031000051E107C0AA1FBB1FA617B70710F0A61BE7
:10311000B70B881F991F5A95A9F780959095BC0108
:10312000CD01089511E0C4EBD1E000E006C0802F8E
:10313000FE010E9476182196011DC53BD10780E053
:083140000807A9F7F894FFCF7E
:103148000300F6090500AB07010000000000AA060D
:10315800200000000000AC075B023508F9071908D9
:10316800EE070A4D656D6272616E65205363756C7A
:1031780070747572650A42792054617562612041E4
:10318800756572626163680A436F646520627920BD
:103198005068696C6C697020446176696420537466
:1031A8006561726E730A00496E697469616C697A47
:1031B800696E672E2E2E004475616C2047322048B8
:1031C80069676820506F776572204D6F746F722041
:1031D800536869656C64004D31206661756C742EA6
:1031E8002054696D653A004D32206661756C742E05
:1031F8002054696D653A004D616368696E652053B6
:10320800746174653A20000943757272656E7420A2
:103218005461726765743A20000954617267657475
:103228004F70656E3A200009546172676574436C8B
:103238006F73653A2000094D6F746F72203120500A
:103248006F7765723A2000094D6F746F72203120D4
:1032580053706565643A2000094D6F746F722031B0
:1032680020506F736974696F6E3A2000094D6F744E
:103278006F72203220506F7765723A2000094D6FC7
:10328800746F7220322053706565643A2000094DCE
:103298006F746F72203220506F736974696F6E3A61
:0E32A80020006E616E00696E66006F76660033
:00000001FF
